:100000000C94850D0C94AD0D0C94AD0D0C94AD0DB0
:100010000C94AD0D0C94AD0D0C94AD0D0C94AD0D78
:100020000C94AD0D0C94AD0D0C948E1A0C94001B19
:100030000C94AD0D0C94AD0D0C94AD0D0C94AD0D58
:100040000C94AD0D0C94A4100C94AD0D0C94AD0D4E
:100050000C94AD0D0C94AD0D0C94AD0D0C947E0F65
:100060000C94AD0D0C94AD0D0C94AD0D0C94AD0D28
:100070000C94AD0D0C94AD0D0C94AD0D0C94AD0D18
:100080000C9442110C94AD0D0C94AD0D0C94AD0D6F
:100090000C94AD0D0C94AD0D0C94AD0D0C94AD0DF8
:1000A0000C94AD0D0C94AD0D0C94AD0D070E0A0E15
:1000B000F90DFD0D010E2B0E2B0E2B0E0E0E120E3A
:1000C000160E1C0E200E2B0E260EA20EA70EAC0E28
:1000D000B60EC00E0A0F0A0F0A0FCA0ED40EDE0E9D
:1000E000E80EF50E0A0FFD0E00C0A050A854BA7E0F
:1000F000BA5DAB55A9510102020204081020C000EC
:100100007E950A05020100000000000000000000CA
:10011000F0F8F8F8F000817E000304081020404059
:100120004080808080989C5E5F4F2F1709040300F9
:10013000E058AC562A5D2B150B050182820418E0AD
:10014000071920404080808080989C5F4F271807C7
:1001500000C02090E8F4F2FA7A3919010101010295
:10016000020204081020C0007E81000F1F1F1F0F15
:10017000000000000000000000008040A050A97EA8
:10018000000304081020404040808A95AAD5BA5D3B
:100190007E5D2A150A050300E018E4F2FA39190118
:1001A00001010102020498E0071820414180A0D01B
:1001B000A8D4BA546A351A0700C0E0F0F8FCFEFE75
:1001C000FEFFFFFFFFFFFFFEFEFEFCF8F0E0C000B9
:1001D0007EFFFFFFFFFFFFFFFFFFFFFFFFFFFFFFB0
:1001E000FFFFFFFFFFFFFF7E0003070F1F3F7F7F23
:1001F0007FFFFFFFFFFFFF7F7F7F3F1F0F07030092
:10020000E0F8FCFEFEFFFFFFFFFFFFFEFEFCF8E054
:10021000071F3F7F7FFFFFFFFFFFFF7F7F3F1F071E
:1002200000000000240027002A002D003000D5F037
:100230008D14A1C881CFD9F1AF200014021302128E
:100240000215020702080204010C01060100000069
:10025000000000000000000000000000000000009E
:10026000000000000000209078484CC444444444FE
:10027000CC48789020000000000000000000000042
:10028000000000000000000000000000000000006E
:10029000000000000000000000000000000000005E
:1002A000000000000000000000000000000000004E
:1002B0000000000000000000100C3E12121212128A
:1002C00032161C28000000000000000000000000A2
:1002D000000000000000000000000000000000001E
:1002E000000000000000010000000001000000000C
:1002F00001000000010000000000000000000000FC
:1003000000000000000000000000000000000000ED
:1003100000000000000000000000000000000000DD
:1003200000000000000000000000000000000000CD
:1003300000000000000000000000000000000000BD
:1003400000000000000000000000000000000000AD
:10035000000000000000000000000000000000009D
:10036000000000000000000000000000000000008D
:10037000000000000000000000000000000000007D
:100380000000000000000000008040004030040237
:1003900001020520448850A0002040C00000000059
:1003A000000000000000000000000000000000004D
:1003B000000000000000000000000000000000003D
:1003C000000000000000000000000000000000002D
:1003D000000000000000000000800080402020009D
:1003E000100010A050A0408000000000000000009D
:1003F000000000000000000000000000000000807D
:10040000402010080400000201000000000000006D
:1004100000000000000851A251A2458A152B54A8E3
:100420005080103040C000000000000000000000BC
:1004300000000000000000000000000000000000BC
:1004400000000000000000008040200010080010A4
:10045000000800040004020002000000402010A078
:1004600014A045A855AA45AA55A244AA54A800001C
:10047000102000000080400040201008040201000D
:10048000000000000000000000000000000000006C
:1004900000000002008A14AA4508152A55A0110080
:1004A00000020000012201224488108050A04080F8
:1004B0004080400040004020002010001000100844
:1004C000000804000200010000000000000000001D
:1004D000000000000000000000000000050A1500F8
:1004E00001020400048A00C041220520100800080F
:1004F00004020002010000000000000000000000F3
:1005000000000000000000000000000000000000EB
:1005100000000000000001000100000000000100D8
:100520000000000000000102040A050A050A050A8D
:10053000150A150204000408100010200000000035
:1005400000000000000000000000000000000000AB
:10055000000000000000000000000000000000009B
:100560000000010001000000000000000000000089
:10057000000000000000000000000000000000007B
:10058000000000000000000000000000000000006B
:10059000000000000000000000000000000000005B
:1005A000000000000000000000000000000000004B
:1005B000000000000000000000000000000000003B
:1005C000000000000000000000000000000000002B
:1005D000000000000000000000000000000000001B
:1005E00000000000000000000020000000000000EB
:1005F00000000000000000000000000000002020BB
:1006000070FC7020200000000000000000000020AE
:1006100000000000000000000000000000000000DA
:1006200000000000000000000000000000000000CA
:1006300000000000000000000000000000000000BA
:1006400000000800000000000000000000000000A2
:10065000000000000000000020000000000000007A
:10066000000000000000000000000000000000008A
:10067000000000000000000000000000000000007A
:100680000001000000000000000000000000000069
:1006900000000000800000000000000000000000DA
:1006A0000000000000000400000000000000000046
:1006B000000000000000000207020000000000002F
:1006C000000000000000000000000000000000002A
:1006D000000000000000000000000000000000001A
:1006E00000000000000000000000020702000000FF
:1006F00000000000000080808080808080828080F8
:1007000080808080808080808080808080808080E9
:1007100080808080808080808080808080808080D9
:100720008080800000000000000000000000000049
:1007300000000000000000000000000000000000B9
:100740000008000000000000000000000000101081
:100750001010101010101010180808080808080CC5
:100760000404040404040406020202020202030157
:100770000101010101010100000000000000000072
:100780000000000000000000000000000000000069
:100790000000000000000000000000000000000059
:1007A0000000010101010101010101010103020237
:1007B0000202020202020206040404040404040405
:1007C000040404040C0808080808080808080000C5
:1007D0000000000000000000000000000000000019
:1007E0000000000000000000000000000000000009
:1007F00000000000000000000000000000000000F9
:1008000000000000000000000000000000000000E8
:1008100000000000000000000000000000000000D8
:1008200000000000000000000000000000000000C8
:1008300000000000000000000000000000000000B8
:1008400000000000000000000000000000000000A8
:100850000000000000000000000000000000000098
:100860000000000000000000000000000000000088
:10087000F8080E82020E08F800000000000E1F1F8C
:100880001F0E00000000000000000000000000003B
:100890000000000000000000000000000000000058
:1008A0000000000000000000000000000000000048
:1008B0000000000000000000000000000000000038
:1008C000000000000000E0E0000000000000000068
:1008D0000000000000000000000000000000000018
:1008E000F010109C0404841C1010F00000000000A4
:1008F000FF008010821000FF0000000000000000D8
:1009000000000000000000000000000000000000E7
:1009100000000000000000000000000000000000D7
:1009200000000000000000000000000000000000C7
:1009300000000000000000000000000000000000B7
:1009400000000000FC04474704FC00000000000019
:100950000000E0203F01010704FC0000000000004F
:10096000FF000020002000040000FF000000000045
:10097000FF000088220000FF0000FC0404040404BF
:1009800004040404FC00000000000000000000005B
:100990000000000000000000000000000000000057
:1009A000000000000000000000000000000000E067
:1009B000202020383820203F3F20E00000000000A9
:1009C00000000000FF00929200FF00000000404085
:1009D00040407F0000000000000F080808080808D9
:1009E0000F000001000100010000FF808080808076
:1009F000FF0000000000000F08080F0000000000CA
:100A0000000000003F202020E000F8080E02020253
:100A10000202020202020E08F80000F808060202B2
:100A2000020202020202020E08F80000808080FF2B
:100A300000000000000000000000FF808080808037
:100A40008080E0203F000404003F2020E080000080
:100A50000000000000000000000000000000000096
:100A60000000000000000000000000000000000086
:100A70000000000000000000000000000000000076
:100A8000000000000000000003020300000000005E
:100A90000000000000000000070406030000000042
:100AA000000000000000000000030E080F0000001E
:100AB0000000000000000000000000000000000036
:100AC0000000000000000000000000000000041210
:100AD000AF42040011AA44000011AA44000011AA68
:100AE00044000011AA44000011AA44000011AA44C5
:100AF000000011AA44000018FF8E8C8C8C8C8EFF95
:100B000018000884427ED11010D17E428418000162
:100B1000010101000001010101000018FF8E8C8C11
:100B20008C8C8EFF18000080407ED11010D17E404A
:100B30008000000101010100000101010100001815
:100B4000FFFEFCFCFCFCFEFF18000884C2FEDF1F59
:100B50001FDFFEC284180001010101000001010134
:100B600001000018FFFEFCFCFCFCFEFF18000080EA
:100B7000C0FEDF1F1FDFFEC0800000010101010079
:100B8000000101010100000018FF8EAC8CAC8EFF4B
:100B900018000000DC7E519010D17E4284080000D5
:100BA00001010101000101010100000018FF8EACEC
:100BB0008CAC8EFF1800CC42C25E71101031DE4248
:100BC0004484010101000000000001010101000056
:100BD00018FFFEFCFCFCFEFF18000000DCFEDF9F9F
:100BE0001FDFFEC2840800000101010100010101B4
:100BF0000100000018FFFEFCFCFCFEFF1800CCC248
:100C0000C25E7F1F1F3FDEC2C484010101000000DD
:100C1000000001010101C018FFFEFCFCFCFCFEFF0E
:100C200018C00182C2FEDF1F1FDFFEC28201000169
:100C300001010100000101010100C018FF8EAC8C10
:100C40008CAC8EFF18C00182427ED11010D17E4242
:100C500082010001010101000001010101004C4578
:100C600056454C2000FEFFFFFFFFFFFFFFFFFFFF89
:100C7000FFFE0F1F1F1F1F1F1F1F1F1F1F1F0F788C
:100C8000000E1F3E7C3E1F0E000000000000008092
:100C9000C0E0F070783C1C1C1E0E0E0F0707070703
:100CA000070707070F0E0E1E1C1C3C7870F0E0C0F3
:100CB00080000000000000000000E0F0FC3E1F0784
:100CC0000381E0E0F0FCFCFCF0E0800000000000AC
:100CD000000000000080E0F8FCFCF8F0E0C08103B8
:100CE000071F3EFCF0E00000F8FFFF0F010000F8D6
:100CF000FEFFFFFFFFFFFFFFFFFF7F1E0CC0E0E0D6
:100D0000E0E0C00C1F7FFFFFFFFFFFFFFFFFFFFEC4
:100D1000F00000010FFFFFF81FFFFFF08000000050
:100D2000000000000000000000000080C0E3E7E7D2
:100D3000E7E7E3C000000000000000000000000042
:100D400000000080F0FFFF1F0000070F3F7CF8E06D
:100D5000C08000000000000060F0FCFFFFFFFFFF0C
:100D6000FFFFFFFFFFFEF87060000000000080C082
:100D7000E0F87C3F0F0700000000000000000001C9
:100D800003070F0E1E3C3838787870F0E1E1E1E19E
:100D9000E1E1E1E1F070707838383C1E0E0F070396
:100DA000010000000000000047414D45204F56451E
:100DB00052004C4556454C20434F4D504C455445F0
:100DC000440047414D4520434F4D504C4554454408
:100DD00000434F4E47524154554C4154494F4E5396
:100DE00000465053200062792040696776696E6141
:100DF000005A45524F2047004E45474154495645F9
:100E0000004D4952524F5200FE0341C1C1E1F1F978
:100E100069390103FE0F1812141113171010101066
:100E2000180FFE0301F9F9F9793919F90103FE0FD9
:100E300018101313121212121310180FFE03113987
:100E40005511111151910103FE0F181011111111BB
:100E500011151311180F4641535400534C4F5700AE
:100E6000534849454C4400322052415953004445AF
:100E7000415448004C49464500FE0341E1B119493F
:100E8000E1B1190903FE0F181010111312101113FC
:100E900012180FFE030179F9F9F9F9F9790103FE46
:100EA0000F18101011131713111010180FFE032133
:100EB00011F9112111F9112103FE0F18101017104B
:100EC0001010171010180FFE0301F1999DFD9D9948
:100ED000F10103FE0F181011171316131711101834
:100EE0000FFE0361F1F9F1E1F1F9F16103FE0F1871
:100EF000101011131713111010180F5041555345AE
:100F00000053484F5420524159004D4F56452050F0
:100F10004C41594552003C7EFFFFFFFF7E3C0000E4
:100F20003C66C38181C3663C4954454D53004241F0
:100F3000534943530076312E310008183F7FFF7F1D
:100F40003F18087C7C7CFFFE7C381000000001000C
:100F50000000004E45572047414D4500435245444F
:100F60004954530048454C500053455454494E474A
:100F70005300444946464943554C54593A562E4528
:100F800041535900444946464943554C54593A4502
:100F900041535900444946464943554C54593A4EE9
:100FA0004F524D414C00444946464943554C5459D3
:100FB0003A4841524400444946464943554C5459E5
:100FC0003A554C54524100444946464943554C54C5
:100FD000593A562E484152440053484F57204650E4
:100FE000533A4F46460053484F57204650533A4FC6
:100FF0004E004155544F534156453A4F46460041E5
:1010000055544F534156453A4F4E004C495645535F
:101010003A35004C495645533A554E4C494D495482
:101020004544004650533A3330004650533A363028
:1010300000534F554E443A4F464600534F554E4489
:101040003A4F4E00434F4E54494E55453A4C564C3C
:101050002000504C4159003C4A8583A1B1423C3CA0
:101060007EFFFFFFFF7E3C3C428D85C1A1523C309C
:1010700070FCFE1C181898F8F0000000000000003A
:1010800000000000C0FC0FFFE000000000000000B6
:101090000000F8FE3EFCE000000000FCFF3F000006
:1010A0000080E070381C0E0E1E3C3810000000FC62
:1010B000FC000000003FFFFC0E0E0F0D1C1CF8E0B2
:1010C0008000000060E0E07C6F6020213F7EF03017
:1010D000303030000000FFFF0001071F7CF0C0FF30
:1010E000FF000000FCFF030000303018189CFC7C5F
:1010F000080000FFFF800000001C7F7F18181818F0
:10110000180C0F0700000080E0FC0F00000000003A
:101110000000031FFCF0C000007F7F000000000003
:1011200000010F1F3F180000071F3C7870707038D7
:101130001E0F0300000000007F7F00000000000081
:101140000000000000000000000000030300000099
:10115000000000000000000000010000000000008E
:10116000000000000000000000000000000000007F
:1011700000000000000000000000000000000074FB
:10118000864023401423C01423409423C094238218
:10119000400798A822C0A007E898EA00C007A01658
:1011A00023601661B89C01B0A601B0B001B0BA418D
:1011B000469CC150A60150B00150BAA498C006A0E8
:1011C000A01220A01260A002E0A02D00C061C0A06B
:1011D00009D09A09E09409F08E0950A80960AE0977
:1011E00070B409B01A09A01409900E09302809201A
:1011F0002E09103414064023901823B018235018D9
:101200002370189A12402115341115341115341118
:10121000153411153461EB3411EB3411EB3411EB4F
:101220003411EB34540040039AA0021AA00366A0C4
:1012300006E6A09408C0021E0E42222002E20E0220
:10124000DE2013044003981823400E0368180A0890
:101250004001B43101B52801B61F01B71601B80D20
:1012600001480D014916014A1F014B28214C3181CB
:10127000108C03E416C2024023C00D63400D03022C
:101280003A2130190B1C1403D8148A02E001260EEF
:1012900001260E01260E01260E01260E01260E0144
:1012A000260E01260E01260E01260E6400C0239A8A
:1012B000A0021AA00366A006E6A026084063AD348B
:1012C00001B32501BB1D01451D014B25435334349A
:1012D000004002401802C01802409802C098B2882C
:1012E000400798200768206610C0011608611E108C
:1012F00001261801DA18C1E21001EA0893404063A0
:10130000981802C00E0768185280400A1E0E0AE2A2
:101310000E930240061F14421F14021F141208E409
:1013200003342023CC2096004001B43101B52801BC
:10133000B61F014A1F014B28614C3102424083C055
:101340000D83400DC4184001923202201602E016AF
:10135000016E3201008C03E81408087021943001FA
:101360009E3009A83001B23009BC3001C630C1D06E
:101370003061DA3083044002941802400C026C1889
:10138000B442A0062C20024034C2C08C22D4A073E8
:101390000220612020224020076020A40A400990FA
:1013A0009A0AB0380A503809709AB2124012142AB8
:1013B00012EC2A26024005A09A01ACA101B8A801AE
:1013C00048A80154A105609A118640231C27930266
:1013D00040018C3411360C017434120264815512B0
:1013E000020D0D9206186240202368181302400275
:1013F0001E0E09401E02620E84023AC1140F6130B3
:1014000019015019016C0F820240421E0E42E20E79
:1014100002021002E01421C02881021C07EA2C01FC
:10142000022062260EFFFF1F010010F8FCFEFFFFE6
:10143000FFFFFF03070F1FF80C0603FF0000000368
:10144000060C1800000000003E5B4F5B3E3E6B4FF9
:101450006B3E1C3E7C3E1C183C7E3C181C577D5746
:101460001C1C5E7F5E1C00183C1800FFE7C3E7FFF2
:101470000018241800FFE7DBE7FF30483A060E2685
:1014800029792926407F050507407F05253F5A3CDD
:10149000E73C5A7F3E1C1C08081C1C3E7F14227F20
:1014A00022145F5F005F5F06097F017F00668995F8
:1014B0006A606060606094A2FFA29408047E0408E1
:1014C00010207E201008082A1C08081C2A08081E64
:1014D000101010100C1E0C1E0C30383E3830060E4A
:1014E0003E0E06000000000000005F000000070044
:1014F0000700147F147F14242A7F2A122313086400
:101500006236495620500008070300001C224100A3
:101510000041221C002A1C7F1C2A08083E080800E3
:101520008070300008080808080000606000201083
:101530000804023E5149453E00427F40007249493D
:1015400049462141494D331814127F10274545451E
:10155000393C4A494931412111090736494949363F
:10156000464949291E0000140000004034000000D4
:101570000814224114141414140041221408020106
:101580005909063E415D594E7C1211127C7F494932
:1015900049363E414141227F4141413E7F494949CF
:1015A000417F090909013E414151737F0808087FC5
:1015B00000417F41002040413F017F081422417FCC
:1015C000404040407F021C027F7F0408107F3E4164
:1015D00041413E7F090909063E4151215E7F0919BB
:1015E0002946264949493203017F01033F404040D3
:1015F0003F1F2040201F3F4038403F6314081463C2
:1016000003047804036159494D43007F414141027D
:1016100004081020004141417F04020102044040BF
:10162000404040000307080020545478407F28447D
:1016300044383844444428384444287F3854545467
:101640001800087E090218A4A49C787F0804047876
:1016500000447D40002040403D007F1028440000B1
:10166000417F40007C047804787C08040478384486
:10167000444438FC1824241818242418FC7C08043A
:101680000408485454542404043F44243C4040205B
:101690007C1C2040201C3C4030403C442810284406
:1016A0004C9090907C4464544C44000836410000B7
:1016B00000770000004136080002010204023C26C7
:1016C00023263C1EA1A161123A4040207A3854548E
:1016D0005559215555794121545478412155547813
:1016E0004020545579400C1E5272123955555559A7
:1016F000395454545939555454580000457C4100CC
:1017000002457D420001457C40F0292429F0F02863
:101710002528F07C545545002054547C547C0A09FB
:101720007F4932494949323248484832324A48486A
:10173000303A4141217A3A42402078009DA0A07D74
:1017400039444444393D4040403D3C24FF24244832
:101750007E4943662B2FFC2F2BFF0929F620C088DA
:101760007E090320545479410000447D41304848AB
:101770004A32384040227A007A0A0A727D0D1931C5
:101780007D2629292F28262929292630484D402021
:10179000380808080808080808382F10C8ACBA2FFD
:1017A000102834FA00007B000008142A14222214A6
:1017B0002A14089500220095AA005500AAAA55AA45
:1017C00055AA000000FF00101010FF00141414FFB1
:1017D000001010FF00FF1010F010F0141414FC00A3
:1017E0001414F700FF0000FF00FF1414F404FC14AD
:1017F0001417101F10101F101F1414141F001010A6
:1018000010F0000000001F101010101F101010101A
:10181000F010000000FF101010101010101010FF3A
:1018200010000000FF140000FF00FF00001F101751
:101830000000FC04F414141710171414F404F4003A
:1018400000FF00F714141414141414F700F7141400
:1018500014171410101F101F141414F4141010F087
:1018600010F000001F101F0000001F14000000FCFB
:10187000140000F010F01010FF10FF141414FF14E7
:101880001010101F00000000F010FFFFFFFFFFF01E
:10189000F0F0F0F0FFFFFF0000000000FFFF0F0F6F
:1018A0000F0F0F38444438447C2A2A3E147E02022B
:1018B0000606027E027E0263554941633844443C79
:1018C00004407E201E2006027E020299A5E7A5990B
:1018D0001C2A492A1C4C7201724C304A4D4D303042
:1018E00048784830BC625A463D3E494949007E012D
:1018F00001017E2A2A2A2A2A44445F444440514A4C
:10190000444040444A51400000FF0103E080FF0092
:101910000008086B6B083612362436060F090F06CE
:10192000000018180000001010003040FF010100F6
:101930001F01011E00191D1712003C3C3C3C000019
:1019400000000006011501260137014A015D017200
:101950000188019F01B801D201EE010B022A024B5E
:10196000026E029302BA02E40210033F037003A462
:1019700003DC03170455049704DD0427057505C827
:101980000520067D06E0064907B8072D08A9082DA1
:1019900009B9094D0AEA0A900B400CFA0CC00D91E6
:1019A0000E6F0F5A1053115B1272139A14D4152034
:1019B000178018F519801B231DDE1EB420A622B542
:1019C00024E4263429A72B402E0031EA3300374582
:1019D0003ABC3D68414C456B49C84D68524F5780F1
:1019E0005C006210111213151617181A1C1D1F2106
:1019F000232527292C2E3134373A3E4145494E5272
:101A0000575C62686E757B838B939CA5AFB9C4D01D
:101A1000DCE9F70000000200090F000003040100E8
:101A20000C000000000000000000000000000000AA
:101A300000000408020110408040102040804080D7
:101A40000802040180402010020110801020404054
:101A50002000000000250028002B002E003100048B
:101A60000404040403040502020202040302020245
:101A70000206060606060604040202020404030126
:101A8000080B00020202010009040000010202002A
:101A900000052400100105240101010424020605AB
:101AA000240600010705810310004009040100021B
:101AB0000A000000070502024000000705830240FB
:101AC00000000403090441726475696E6F204C4C78
:101AD000430041726475696E6F204C656F6E617270
:101AE000646F0012010002000000404123368000B4
:101AF000010102030112010002EF020140412336FD
:101B00008000010102030100383011241FBECFEF15
:101B1000DAE0DEBFCDBF28E0AAEBB1E001C01D9244
:101B2000AC34B207E1F711E0A0E0B1E0ECEDF3E690
:101B300002C005900D92AA3BB107D9F71DE0C5E898
:101B4000DDE004C02197FE010E94A730C438D10710
:101B5000C9F70E943D1D0C94EC310C940000CF920B
:101B6000DF92EF92FF920F931F93CF93DF936C015D
:101B70007A018B01C0E0D0E0CE15DF0589F0D801F5
:101B80006D918D01D601ED91FC910190F081E02DD8
:101B9000C6010995892B11F47E0102C02196ECCF74
:101BA000C701DF91CF911F910F91FF90EF90DF90D0
:101BB000CF9008950E94AD30362F90E0FC01ED5E8D
:101BC000F54E4491FC01EE5CF54E2491FC01E15A86
:101BD000F54E8491882309F451C04423E1F150E08B
:101BE000FA013197EF30F105B0F5EA5AFF4F0C9446
:101BF000A730909180009F7707C0909180009F7DD3
:101C000003C090918000977F9093800024C094B58A
:101C10009F7702C094B59F7D94BD1DC090919000A8
:101C20009F7707C0909190009F7D03C09091900096
:101C3000977F909390000FC09091C0009F7703C052
:101C40009091C0009F7D9093C00005C09091C2000C
:101C5000977F9093C200E82FF0E0EE0FFF1FEF5A3E
:101C6000F54EA591B4918FB7F894EC91311103C062
:101C700020952E2301C02E2B2C938FBF0895CF9338
:101C8000DF9390E0FC01EE5CF54E2491FC01E15AFB
:101C9000F54E8491882361F190E0880F991FFC0133
:101CA000E05EFD4FC591D491FC01EF5AF54EA59130
:101CB000B491611109C09FB7F8948881209582235F
:101CC0008883EC912E230BC0623061F49FB7F894A7
:101CD0003881822F809583238883EC912E2B2C933F
:101CE0009FBF06C08FB7F894E8812E2B28838FBF43
:101CF000DF91CF9108951F93CF93DF93182FEB01BE
:101D000061E00E943F0E209711F460E004C0CF3FD5
:101D1000D10539F461E0812FDF91CF911F910C94AF
:101D2000DC0DE12FF0E0ED5EF54EE4914E2F50E03A
:101D3000FA013197EF30F10508F06CC0EB59FF4F15
:101D40000C94A73084B5806884BDC7BD68C084B5D5
:101D5000806284BDC8BD63C080918000806880932C
:101D60008000D0938900C093880059C08091800082
:101D7000806280938000D0938B00C0938A004FC014
:101D800080918000886080938000D0938D00C09304
:101D90008C0045C080919000806880939000D09323
:101DA0009900C09398003BC080919000806280931E
:101DB0009000D0939B00C0939A0031C08091900016
:101DC000886080939000D0939D00C0939C0027C0B2
:101DD0008091C00080688093C0008091C0008F7B9C
:101DE0008093C000C093CF001AC08091C000806271
:101DF0008093C000C093D00012C08091C200886060
:101E00008093C2008091C2008B7F8093C200C093F8
:101E1000D20005C0C038D1050CF07CCF76CFDF9161
:101E2000CF911F9108953FB7F894809176039091D8
:101E30007703A0917803B091790326B5A89B05C0DC
:101E40002F3F19F00196A11DB11D3FBFBA2FA92F39
:101E5000982F8827820F911DA11DB11DBC01CD01B6
:101E600042E0660F771F881F991F4A95D1F70895A2
:101E70008F929F92AF92BF92CF92DF92EF92FF929A
:101E80006B017C010E94130F4B015C01C114D10452
:101E9000E104F104F1F00E94130FDC01CB01881979
:101EA0009909AA09BB09883E9340A105B10570F3C1
:101EB00021E0C21AD108E108F10888EE880E83E01B
:101EC000981EA11CB11CC114D104E104F10419F73E
:101ED000DDCFFF90EF90DF90CF90BF90AF909F90BD
:101EE0008F9008952FB7F8946091720370917303E7
:101EF00080917403909175032FBF08951F920F92E4
:101F00000FB60F9211242F933F938F939F93AF930C
:101F1000BF938091720390917303A0917403B09169
:101F200075033091710323E0230F2D3720F40196C0
:101F3000A11DB11D05C026E8230F0296A11DB11DEC
:101F4000209371038093720390937303A09374039F
:101F5000B09375038091760390917703A0917803F5
:101F6000B09179030196A11DB11D809376039093E2
:101F70007703A0937803B0937903BF91AF919F91BA
:101F80008F913F912F910F900FBE0F901F9018953A
:101F90008FB12CB193B130E0209530952074332768
:101FA000A90123E0559547952A95E1F7292F30E0BF
:101FB00020953095207133273595279535952795B0
:101FC000242B8095807F822B0895E091BF01F091B2
:101FD000C00190818091BE01892B8083E091BC017A
:101FE000F091BD0190818091BB0180958923808310
:101FF000E091BF01F091C00190818091BE01809578
:10200000892380830895E091BC01F091BD01908106
:102010008091BB01892B8083E091BF01F091C001C9
:1020200090818091BE0180958923808308958EBD23
:1020300000000DB407FEFDCF8EB50895CF93DF935A
:102040001F92CDB7DEB789830E94E50F89810E9478
:1020500017100F90DF91CF910C940310CF92DF9265
:10206000EF92FF920F931F93CF93E82FF0E0E25887
:10207000F54EC491E62FF0E0603330F4ED51F64EAA
:10208000E4910E2F10E006C0EE0FFF1FED51F74E4A
:10209000059114916801E12CF12C60E074E284EF69
:1020A00090E0A70196010E948931BA01A90141502F
:1020B0005109610971094115510581E068077105F0
:1020C00080F060E970ED83E090E0A70196010E9446
:1020D0008931BA01A901415051096109710983E0AF
:1020E00001C081E0C130C9F0C33031F59091910059
:1020F000987F892B8093910050939900409398008A
:102100001093700300936F0381E080936E038091BE
:1021100071008260809371000FC090918100987F60
:10212000892B80938100509389004093880080918F
:102130006F00826080936F00CF911F910F91FF908D
:10214000EF90DF90CF9008951F920F920FB60F92ED
:1021500011242F933F938F939F93AF93BF93EF934C
:10216000FF9380911D03882309F44DC080911903CA
:1021700090911A03A0911B03B0911C03892B8A2B09
:102180008B2B51F180918103E0918203F0918303C5
:102190009081892780838091190390911A03A091DF
:1021A0001B03B0911C03181619061A061B06A4F58A
:1021B0008091190390911A03A0911B03B0911C0305
:1021C0000197A109B1098093190390931A03A09371
:1021D0001B03B0931C0320C010921D0380916F005D
:1021E0008D7F80936F0090918103E0918203F09145
:1021F00083038081282F30E0892F90E0809590958F
:102200008223932308C080918103E0918203F0919F
:102210008303908189278083FF91EF91BF91AF91D4
:102220009F918F913F912F910F900FBE0F901F9014
:102230001895E82FF0E0E258F54EE491E13019F0FE
:10224000E33069F0089580916F008D7F80936F0077
:1022500090918103E0918203F091830308C0109272
:102260006E0390917E03E0917F03F0918003808163
:10227000282F30E0892F90E080959095822393233A
:10228000808308951F920F920FB60F9211242F93FF
:102290003F934F935F936F937F938F939F93AF93EE
:1022A000BF93EF93FF9380916E03882349F0809151
:1022B0007E03E0917F03F0918003908189278083E2
:1022C0008091BA01882309F493C080916A039091A8
:1022D0006B03A0916C03B0916D03892B8A2B8B2B20
:1022E00009F486C080916A0390916B03A0916C03FE
:1022F000B0916D030197A109B10980936A0390938E
:102300006B03A0936C03B0936D03892B8A2B8B2BEB
:1023100009F06EC0E0916803F0916903BF016F5F3F
:102320007F4F70936903609368034491942F907F6B
:10233000842F8F70903819F40E941911EBCF9039C7
:1023400081F43296F0936903E0936803FB01649192
:10235000909184038917F0F667FDDCCF0E942E1060
:10236000D9CF903E29F41092690310926803D2CF1E
:10237000903F19F41092BA013BC097FDCBCF329633
:10238000F0936903E0936803FB01249130E0342B60
:10239000A0916F03B09170030E94DD316C507E4FAD
:1023A0008F4F9F4F28EE33E040E050E00E94BB315A
:1023B00020936A0330936B0340936C0350936D0337
:1023C00080916A0390916B03A0916C03B0916D03AF
:1023D000892B8A2B8B2B61F481E090E0A0E0B0E0A8
:1023E00080936A0390936B03A0936C03B0936D0387
:1023F000FF91EF91BF91AF919F918F917F916F91DD
:102400005F914F913F912F910F900FBE0F901F90B2
:1024100018956038710518F54034510500F5A42F62
:10242000A695A695A695B0E047705527B695BA2F04
:10243000AA27B795A7956A0F7B1FFC01E60FF71F28
:1024400081E090E001C0880F4A95EAF7222319F055
:102450009489892B03C0809594898923848B08955E
:102460002F923F924F925F926F927F928F929F92A4
:10247000AF92BF92CF92DF92EF92FF920F931F9392
:10248000CF93DF93CDB7DEB72A970FB6F894DEBFB0
:102490000FBECDBF6A3091F4FC01E85EFB4F408176
:1024A00032972081318158E0459F200D311D112444
:1024B00031832083329711821082C1C06D3009F4BC
:1024C000BEC09A878987885E9B4F9C838B83DC0183
:1024D0002C90E985FA85EA5EFB4F60807180E98582
:1024E000FA85EC5EFB4FFA83E983008111810038A5
:1024F0001105D4F0AB81BC812C91422F50E0E981D1
:10250000FA8180819181F6E02F9F800D911D112429
:10251000A981BA818D939C93E985FA85E75EFB4F8B
:10252000208121115EC08BC0B0E46B16710414F7DA
:10253000C801E5E02E9E800D911D11241816190684
:10254000CCF6422C512CC301F8E02F9E800D911D3A
:1025500011241816190674F655E0659F9001112490
:102560003F832E83E12CF12C85E0E816F10441F045
:10257000EE81FF81EE0DFF1DED5BFB4E349001C03F
:10258000312C630138E0932D91709D834801882D93
:10259000801B8215B0F456018A2D8C19821568F4BF
:1025A0002D81A501B40189859A8538870E94091279
:1025B000AFEFAA1ABA0A3885EFCFBFEF8B1A9B0A82
:1025C000E6CF36943150C40CD51C3111DCCFEFEF7F
:1025D000EE1AFE0A040D151DF6E0EF16F10421F6C1
:1025E00089CF6AEF64039001659F300D1124205854
:1025F0003F4F281739071CF5A985BA85ED91FC9145
:1026000011970190F081E02D6AE0CD012A960FB676
:10261000F894DEBF0FBECDBFDF91CF911F910F9118
:10262000FF90EF90DF90CF90BF90AF909F908F90F2
:102630007F906F905F904F903F902F9009942A96D3
:102640000FB6F894DEBF0FBECDBFDF91CF911F91C3
:102650000F91FF90EF90DF90CF90BF90AF909F9041
:102660008F907F906F905F904F903F902F90089544
:102670000C947B310C9473310E9408190E94F41859
:102680006CE271E080E090E00E94380FEDECF3E046
:102690008CE3868380E1818710923C0310923B0398
:1026A00010923A031092390380EA95E09093340334
:1026B0008093330380E89DEF909336038093350336
:1026C00084E190E09093300380932F0310922E03C7
:1026D00010922D0310923803109237031092320398
:1026E000109231030895EDECF3E08FE0868382E4ED
:1026F000818781E090E090933C0380933B031092AC
:102700002C0308958F929F92AF92BF92CF92EF9237
:10271000FF920F931F93CF93DF93182F20E830E0A1
:10272000281B310937FF02C02F5F3F4FE901D595C4
:10273000C795FC2EC12C45E1E42E04E02BE234E1E8
:1027400047E354E165E18C2F0E94B216812C912C55
:1027500058EFA52EA10EB12CF00E8A149B048CF418
:10276000C12C25E1E22E01E025E234E148E254E10A
:1027700065E18F2D880D0E94B2168FEF881A980A96
:10278000ECCF8CEF810FCC24C39495E1E92E04E0CB
:102790002BE234E147E354E165E18C0F0E94B2166D
:1027A000DF91CF911F910F91FF90EF90CF90BF904D
:1027B000AF909F908F9008950F931F93CF93DF93C7
:1027C000EC010E946A318C010B9714F486E401C07D
:1027D00084E60E9482132AEF2003B001219F700D2E
:1027E000112461587F4F77FF02C06F5F7F4F75954F
:1027F00067956F5F4CE1CE01DF91CF911F910F91F3
:102800000C940618ECEEF2E08191811106C083E091
:10281000EC30F807C9F781E0089580E008952F9221
:102820003F924F925F926F927F928F929F92AF9260
:10283000BF92CF92DF92EF92FF920F931F93CF93AD
:10284000DF9300D000D01F92CDB7DEB780E2ECEE70
:10285000F2E0DF011D928A95E9F7109226031092AB
:10286000250310920C0310920D031092EB021092AC
:10287000EA0210920E031092100310920F0380E6EA
:102880009EE09093140380931303E0912803F0E0FB
:10289000EE0FFF1FEF5BFE4FE080F180F7018491A8
:1028A0008F7089838491881F8827881F809368028E
:1028B000849186FB882780F9809324038491807318
:1028C0008093670291E0803219F0803309F090E044
:1028D00090931803F7013196149112FB882780F921
:1028E0008093150315FB882780F98093160313FB4B
:1028F000882780F980932703811102C086EA01C0EE
:1029000087EA0E941E1014FB882780F98093230316
:10291000812F012E000C990B807C9927009729F0BC
:102920008038910521F081E003C080E001C082E0A1
:102930008093170381E011FD80E080934602F70148
:10294000329684918F7790E0069740E5489F9001FA
:10295000499F300D11243093120320931103E49109
:10296000EE1FEE27EE1FE09369024090180346EC3D
:1029700051E05B834A8306E012E097012B5F3F4FF3
:102980006CEE262E62E0362E77E4672E72E0772E0C
:10299000EAE68E2EE2E09E2EFAEAAF2EF2E0BF2E9D
:1029A0007101A0E55A2EB3E0CB2ED12C8E2D8219C9
:1029B0004981841708F07CC0F901329784918370B3
:1029C000D7018D937D01E491EC7FD301ED933D011F
:1029D000D9011197FD01449190E0FC01E35CFE4FA9
:1029E0006081669570E04F7750E0461B570B549E10
:1029F000F001559EF00D1124AF01F4014193519364
:102A00004F01F90144914F7750E0461B570B549EFC
:102A1000B001559E700D1124F501619371935F0112
:102A2000FD014491DC01AF5DBE4F47FF06C04C91F4
:102A300050E051954195510902C04C9150E0F80188
:102A400051834083442051F0F9018491EC91F0E0EE
:102A500087FF06C0F195E195F10902C0E0E0F0E0E2
:102A6000AA81BB81ED93FC934420B9F0CA01880F81
:102A7000991F880F991FB6010E949330D8016D935A
:102A80007C93CF01880F991F880F991FB6010E9470
:102A90009330EA81FB81718360834A815B814E5F61
:102AA0005F4F5B834A830E5F1F4F2D5F3F4F7ECF8B
:102AB0000F900F900F900F900F90DF91CF911F917B
:102AC0000F91FF90EF90DF90CF90BF90AF909F90CD
:102AD0008F907F906F905F904F903F902F900895D0
:102AE0002091660330916703F901EE5FFE4F60812C
:102AF00080910001909101014BE3649F800D911D35
:102B00001124492F5527460F511D50930101409321
:102B1000000180832F5F3F4F2730310528F4309329
:102B2000670320936603089510926703109266036B
:102B30000895FC0180917D03811103C08FEF9FEF09
:102B400008959FB7F89482E08093E9002091F20005
:102B500030E01216130614F421E030E0211531059F
:102B600059F0289884E680937C038091F10080835B
:102B70008091F200882319F09FBFC90108958BE668
:102B80008093E800F9CFCF93DF931F92CDB7DEB7E4
:102B90006983DC01ED91FC910280F381E02D41E03D
:102BA00050E0BE016F5F7F4F09950F90DF91CF918D
:102BB000089583E08093E9008091F200882319F062
:102BC0008AE38093E8000895CF93DF931F92CDB7F7
:102BD000DEB7FC018485958597FD05C02FEF3FEF9B
:102BE000358724870BC0CE0101960E949915019765
:102BF00019F4898190E002C08FEF9FEF0F90DF9171
:102C0000CF9108950F931F93CF93DF931F92CDB76A
:102C1000DEB78C01FC018485958597FF0EC0CE013F
:102C200001960E949915019719F4298130E002C09C
:102C30002FEF3FEFF80135872487F80184859585CC
:102C40000F90DF91CF911F910F9108958F929F92D6
:102C5000AF92BF92CF92DF92EF92FF920F931F93AA
:102C6000CF93DF935C016B018A018091100188236F
:102C700009F45EC080917D03882309F459C08091D6
:102C80007B0380FF05C08091E00082608093E000BC
:102C9000E8018AEFF82E93E0E92E2FE3822E3AE343
:102CA000932E209709F43DC08FB7F894E092E90085
:102CB0009091E80095FF06C09091F200282D291B05
:102CC000922F01C090E08FBF91110AC0FA94FF20AB
:102CD00079F161E070E080E090E00E94380FE1CF90
:102CE000292F30E0C217D3070CF49C2F8FB7F8942C
:102CF000E092E9002091E80025FF11C0292F30E083
:102D0000C21BD30BF601915020F041914093F1008A
:102D1000FACFC20ED31E9091E80095FF13C08FBF6B
:102D2000C0CF5D9884E680937A031016110644F0B4
:102D300081E090E0F5019383828380E090E005C01C
:102D4000C80103C09092E800EACFDF91CF911F91B4
:102D50000F91FF90EF90DF90CF90BF90AF909F903A
:102D60008F9008952F923F924F925F926F927F9231
:102D70008F929F92AF92BF92CF92EF92FF920F935A
:102D80001F93CF93DF93CDB7DEB72A970FB6F89492
:102D9000DEBF0FBECDBFFA0139019E2DA82F082E30
:102DA000000CBB0B802E912CAD01480D591D57FD19
:102DB000FCC0262F062E000C330B7901E90EF11C06
:102DC000F7FCF3C060340CF0F0C0309709F4EDC0AC
:102DD00037FF03C0319521953109122F1770362F17
:102DE00067FF02C037E0360F35953595359567FF9B
:102DF00006C0112321F0315028E0211B122F87FF3C
:102E000008C0BD01B7FF07C0662777276A1B7B0B89
:102E100002C060E070E0403851051CF050E8581BDB
:102E200001C0502F561B432E032E000C55083F3F68
:102E30001CF4F42CF09401C0F12C21E0892F877050
:102E400009F420E0969596959695E22EE90EC2013A
:102E50008E0D911D09971CF098E0E92EE31A2F2D95
:102E6000230FCD0140E82403800D911D1124860F0E
:102E7000971FCC2029F0A52FB0E011978A0F9B1F38
:102E8000F09E600D711D1124DF01A60FB71F6114A4
:102E9000710459F05301A60EB71ECC2031F0652FF6
:102EA00070E061507109A60EB71E61E070E0012E5E
:102EB00002C0660F771F0A94E2F7032F0E0D252E2E
:102EC000312C7401E218F308FE82ED82E0E8F0E0B4
:102ED0007F01E218F308F886EF827401E20CF31C1C
:102EE000FA86E98630E8230E311C201709F45DC00C
:102EF0007D013E2D3A1B351708F042C0F501349193
:102F0000369F3001379F700C1124609470947C823E
:102F10006B82F7013491369F2001379F500C1124AA
:102F20005A82498227FD0AC0E0918903F0918A0301
:102F3000E80FF91F3081632264286082112389F031
:102F400027307CF46090890370908A03FC01E0587C
:102F5000FF4FE60DF71D40813C8143233A81342B1E
:102F60003083CC2029F00197F1E0AF1AB10804C0FA
:102F700001963FEFA31AB30A4FEFE41AF40AB9CF50
:102F80002F5FA80DB91DCC2039F0E984FA84AE0C6E
:102F9000BF1C820D931DA9CFED80FE80AE0CBF1C1F
:102FA000EF80F8848E0D9F1DA0CF2A960FB6F8945F
:102FB000DEBF0FBECDBFDF91CF911F910F91FF906C
:102FC000EF90CF90BF90AF909F908F907F906F9039
:102FD0005F904F903F902F900895CF92EF920F9374
:102FE000CE2CE02E022F20E030E00E94B2160F918E
:102FF000EF90CF90089520918603282329F4909193
:103000008503982381E009F480E00895EF92FF9210
:103010000F931F93CF938C012091870330918803E6
:10302000F901EC5EFB4F70E071836083329650E0F3
:10303000518340830E946A317C01C0E0EC2FF0E0B4
:10304000EE15FF0584F4E00FF11F64918091870372
:1030500090918803DC01ED91FC910190F081E02DCD
:103060000995CF5FEBCFCF911F910F91FF90EF901C
:1030700008958F929F92AF92BF920F931F93CF9319
:10308000DF93CDB7DEB7A1970FB6F894DEBF0FBEC2
:10309000CDBF19A2423008F44AE08E010F5D1F4FE8
:1030A000842E912CA12CB12CA50194010E94BB313E
:1030B000E62FB901CA0101501109EA3014F4E05DAC
:1030C00001C0E95CD801EC93232B242B252B61F75D
:1030D0000115110571F0F80101900020E9F7319711
:1030E000AF01401B510BB8018DEC93E00E94AF0D76
:1030F00002C080E090E0A1960FB6F894DEBF0FBE4C
:10310000CDBFDF91CF911F910F91BF90AF909F9056
:103110008F900895CF92DF92EF92FF920F931F93BB
:10312000CF93DF9320918B0330918C038217930709
:1031300099F18C0190938C0380938B0380E4EDE8EC
:10314000F3E0DF011D928A95E9F7EF01CC24C394E7
:10315000D12CA3E0CD3CDA07F9F0E12CF12C0E9450
:10316000701590E0B8010E949330892B39F4C601A4
:103170000E2C01C0880F0A94EAF702C080E090E0AC
:103180002881822B8883BFEFEB1AFB0A88E0E816C0
:10319000F10429F72196DDCFDF91CF911F910F9197
:1031A000FF90EF90DF90CF900895CF93DF930E9430
:1031B0008A18C0E0D0E00E947015A0918903B091F8
:1031C0008A03AC0FBD1F8F73E82FF0E0EB57FC4F65
:1031D0009C91808589278C932196C11584E0D8071E
:1031E00051F7DF91CF9108958091890390918A03DF
:1031F000FC0121912EBD9C5F21910DB407FEFDCFF6
:103200002EBDE817F907C1F70DB407FEFDCF0895ED
:1032100020E081EE93E0B22FB111BFEFFC0100245A
:10322000B193B193B193B1930394D1F70895CF9330
:10323000DF9390918403923009F46EC0C82F292F38
:1032400030E0F901E258F54ED491F901ED50F84F14
:1032500080839F5F9093840361E00E943F0ED13092
:1032600019F0D33039F158C01092800010928100CB
:1032700080918100886080938100809181008160CD
:10328000809381008C2F90E0FC01E15AF54EE4918F
:10329000F0E0EE0FFF1FEF5AF54E25913491309379
:1032A000830320938203FC01EE5CF54E84918093AE
:1032B000810332C010929000109291008091910091
:1032C000886080939100809191008160809391004B
:1032D0008C2F90E0FC01E15AF54EE491F0E0EE0F06
:1032E000FF1FEF5AF54E25913491309380032093C0
:1032F0007F03FC01EE5CF54E849180937E03809108
:103300008403882321F06CE380E00E942E1080E08B
:10331000DF91CF910C941911DF91CF910895809195
:10332000EB0781110DC082E08093E70784E0809372
:10333000E8071092EA071092E90781E08093EB0713
:1033400087EE97E00895FC018485958597FD0BC075
:103350009FB7F89482E08093E9008091F2009FBFCC
:1033600090E0019608959FB7F89482E08093E90079
:103370008091F2009FBF90E0089540914A085091DB
:103380004B08209148083091490842175307B4F47C
:103390009091E8009570E1F39091E80092FD19C0DA
:1033A0008093F10080914A0890914B0801968F73A9
:1033B0009927892B19F48EEF8093E80080914A08B1
:1033C00090914B08019690934B0880934A0881E0B6
:1033D000089580E00895CF92DF92EF92FF920F93CD
:1033E0001F93CF93DF931F92CDB7DEB7182F062F11
:1033F000E42E862F880F8E5F99830E94BD1983E08B
:103400000E94BD19F12EC12E9981D92E8C2D8F19B4
:10341000801798F4F601E7FE02C0849101C0808114
:103420000E94BD19182F80E00E94BD198123FFEF73
:10343000CF1ADF0A8111EACF01C081E00F90DF913E
:10344000CF911F910F91FF90EF90DF90CF90089553
:10345000DF92EF92FF920F931F93CF93DF93D82EBB
:103460008A017B01E40EF51EEB01CE15DF0571F03C
:10347000D7FE03C0FE01849101C088810E94BD195E
:1034800021968111F2CF8FEF9FEF01C0C801DF912C
:10349000CF911F910F91FF90EF90DF9008956150B1
:1034A00030F02091F100FC0120830196F8CF28989C
:1034B00084E680937C0308950F931F93CF93DF934B
:1034C0001F92CDB7DEB782E0898342E450E060E826
:1034D0007AE180E80E94281A0E948F19DC01129676
:1034E0000D911C9113970115110569F0D801ED910B
:1034F000FC910280F381E02DBE016F5F7F4FC80118
:10350000099597FF07C089810F90DF91CF911F9197
:103510000F910895F80100851185E5CF1F920F9254
:103520000FB60F9211248F939F938091E100909199
:10353000E100937F9093E10083FF0FC01092E900B8
:1035400091E09093EB001092EC0092E39093ED00E9
:1035500010927D0398E09093F00082FF20C093E0EA
:103560009093E9009091F200992319F09AE39093D7
:10357000E80090917A03992339F090917A03915061
:1035800090937A03992389F190917C03992339F0E0
:1035900090917C03915090937C03992341F184FF97
:1035A00010C08091E2008E7E81608093E200809165
:1035B000E1008F7E8093E10080917B038E7E8061AD
:1035C00011C080FF16C08091E2008E7E80618093E2
:1035D000E2008091E1008E7E8093E10080917B0388
:1035E0008E7E816080937B0304C05D9ACDCF289A44
:1035F000D6CF9F918F910F900FBE0F901F9018956F
:103600001F920F920FB60F921124CF92DF92EF927A
:10361000FF920F931F932F933F934F935F936F935B
:103620007F938F939F93AF93BF93EF93FF93CF932A
:10363000DF93CDB7DEB76C97DEBFCDBF1092E90048
:103640008091E80083FFFAC168E0CE0145960E94B0
:103650004F1A82EF8093E8008D8987FF05C0909113
:10366000E80090FFFCCF03C09EEF9093E800982FF6
:10367000907609F0C6C09E892F89188D91110CC0D3
:10368000803829F4809146088093F10002C010929E
:10369000F1001092F10047C1422F50E0512B9130C0
:1036A00051F4811140C14130510509F03CC1809174
:1036B00046088D7F0BC0933061F4811134C14130D5
:1036C000510509F030C18091460882608093460818
:1036D0002AC1953041F48091E80080FFFCCF20683A
:1036E0002093E30020C1963009F05FC0EB8CFC8C86
:1036F0001092E90010924B0810924A08123091F58E
:1037000010924908109248080E945C1A99E0BE0184
:103710006F5F7F4FDB01E92F1D92EA95E9F79983EF
:103720001A8391E09E8390EA98879AEF9987209177
:103730004A0830914B08275F3F4F3C832B838D8392
:103740001092E90010924B0810924A08F092490832
:10375000E092480849E050E080E00E94281A0E9468
:103760005C1AE1C0F0924908E09248080E948F1963
:10377000DC011296ED90FC901397E114F10409F42A
:10378000C0C0D701ED91FC910480F581E02DBE0110
:103790006B5E7F4FC7010995009719F00CF0C3C00D
:1037A000C6C0F701E084F184E8CF973009F4BFC0C8
:1037B000983021F481E08093F100B5C0993009F090
:1037C000B2C0837009F0B3C0E4EBF1E081E021E026
:1037D00036E39081992361F08093E9002093EB0018
:1037E00091919093EC003093ED008F5F873089F7D3
:1037F0008EE78093EA001092EA008F8980937D0320
:1038000092C08B8D9C8D1092E90010924B08109203
:103810004A089093490880934808898D811156C0C1
:103820008E899D89913A59F4813209F080C047E030
:1038300050E069E071E080E00E94281A74C0913283
:1038400009F075C0833289F4888D90E0982F88271D
:103850002F89822BA0E0B0E0809311019093120198
:10386000A0931301B09314015EC0803269F480917B
:10387000E80082FFFCCF67E089E091E00E944F1AE8
:103880008BEF8093E80006C0823209F04CC08F892C
:103890008093100180914508882319F0EEEFFAE03B
:1038A00002C0E0E0F8E08091090190910A01A09146
:1038B0000B01B0910C01803B9440A105B10509F0CA
:1038C00088C08091100180FFA0C083C00E948F1922
:1038D000DC0112960D911C9113970115110539F118
:1038E000D801ED91FC910190F081E02DBE016B5E5D
:1038F0007F4FC8010995811116C0F8010085118517
:10390000ECCF1130C1F0133091F48F89882309F482
:1039100055C08230E9F440E860E182ED9AE10E940E
:10392000EB19882321F08EEF8093E80087C081E2B5
:103930008093EB0083C08B8D9C8D089711F41093BE
:10394000470880914708811136C063EE7AE138C09C
:10395000813029F440E86BE086EC9AE1E0CF8330D7
:1039600031F70E948F19DC011296ED90FC901397AD
:103970008E010F5F1F4F6801E114F10479F0D70148
:10398000ED91FC910680F781E02DB801C701099502
:10399000080F111DF701E084F184EECFD8011C92CD
:1039A000F60101900020E9F73197BF016C197D09FC
:1039B00040E0C601B4CF65EF7AE102C062EC7AE183
:1039C0006115710509F4B3CFFB01449150E080E823
:1039D00033CF0FB6F894A8958091600088618093EA
:1039E0006000109260000FBEA895EE3F2AE0F2073B
:1039F00039F08091FE0A9091FF0A9183808393CFE2
:103A00001092FF0A1092FE0A8ECFEE3F8AE0F8076E
:103A100031F0808191819093FF0A8093FE0A87E7BD
:103A200097E7918380839BE088E10FB6F894A8958F
:103A3000809360000FBE9093600075CF6C960FB6B8
:103A4000F894DEBF0FBECDBFDF91CF91FF91EF9114
:103A5000BF91AF919F918F917F916F915F914F91A6
:103A60003F912F911F910F91FF90EF90DF90CF909A
:103A70000F900FBE0F901F901895CF93DF93CDB787
:103A8000DEB762970FB6F894DEBF0FBECDBF789455
:103A900084B5826084BD84B5816084BD85B5826053
:103AA00085BD85B5816085BD80916E008160809304
:103AB0006E0010928100809181008260809381006D
:103AC000809181008160809381008091800081607D
:103AD000809380008091910082608093910080911A
:103AE000910081608093910080919000816080932B
:103AF00090008091C10084608093C1008091C100DA
:103B000082608093C1008091C10081608093C10078
:103B10008091C30081608093C3008091C000826067
:103B20008093C0008091C20081608093C200809128
:103B30007A00846080937A0080917A00826080931A
:103B40007A0080917A00816080937A0080917A0077
:103B5000806880937A0010927D031092460810923C
:103B60007B038091D70081608093D70080EA8093A7
:103B7000D80089B5806189BD89B5826089BD09B4E5
:103B800000FEFDCF61E070E080E090E00E94380F21
:103B90008091D8008F7C80618093D8008091E00074
:103BA000807F8093E0008091E1008E7E8093E10031
:103BB0008DE08093E200559A209AEEEFFFE7859121
:103BC00094918B3F9C4D19F481E0809345081FB779
:103BD000F89480913E03811127C0E0E7FAE18491D7
:103BE000E3E4FAE19491E82FF0E0EE0FFF1FE05ECE
:103BF000FD4FA591B491EC91E92321F461E081E1BD
:103C00000E94DC0D61E081E10E943F0E8CB5806175
:103C10008CBD8CB580648CBD61E08FE00E943F0E4E
:103C200061E080E10E943F0E80913E038F5F8093B0
:103C30003E031FBF0BE312E0F80184910E5F1F4F9C
:103C400031966491882319F00E943F0EF5CF61E010
:103C500086E00E94DC0D61E070E080E090E00E9470
:103C6000380F60E086E00E94DC0D6AE070E080E0E2
:103C700090E00E94380F61E086E00E94DC0DEBE6E8
:103C8000FAE1E491F0E0EE0FFF1FEF5AF54E859157
:103C900094919093C0018093BF01EEE3FAE1E49127
:103CA000E093BE01E3E6FAE1E491F0E0EE0FFF1FDE
:103CB000EF5AF54E859194919093BD018093BC018C
:103CC000E6E3FAE1E491E093BB018CB58C7F8CBD17
:103CD0008DB581608DBD0E94E50F0EE212E0F2E02D
:103CE0000B331F0739F0F80184910E9417100F5F02
:103CF0001F4FF5CF0E940310809164008160809374
:103D0000640080916400826080936400809164000C
:103D10008068809364008091640080648093640074
:103D2000809165008160809365000E94C80F87FFC5
:103D300018C000E014E080E00E9417100150110943
:103D4000D1F760E070E08AE00E947B0E60E070E0F6
:103D50008BE00E947B0E60E070E089E00E947B0EA9
:103D6000FFCF85E00E9417198DE00E94171910926D
:103D7000BA0182E090E00E947331882369F080915B
:103D80006400877F8093640080916500877F8093C3
:103D9000650081E080933D030E9408190E94F41899
:103DA00064EF71E080E090E00E94380F8091640041
:103DB0008E7F8093640087EC80937C0080E2809308
:103DC0007B0062E070E080E090E00E94380F80911C
:103DD0007A00806480937A0080917A0086FDFCCF1F
:103DE0000091780010917900009510958EE58093F0
:103DF0007C0062E070E080E090E00E94380F8091EB
:103E00007A00806480937A0080917A0086FDFCCFEE
:103E1000E0907800F09079000E94130F9B01AC01B4
:103E20002095309540955095E094F094E09ED00117
:103E3000E19EB00DF09EB00D11240E94A8316B01DF
:103E40007C010E94130F6C0D7D1D8E1D9F1D611541
:103E500071058105910511F00E9461318091640026
:103E60008160809364000E943C1380E990E00E948E
:103E70003A13833269F163E280E990E00E943813DB
:103E800060E081E990E00E94381360E081E990E011
:103E90000E94381362E083E990E00E94381360E0EA
:103EA00084E990E00E94381360E085E990E00E9488
:103EB000381361E086E990E00E94381361E087E9F9
:103EC00090E00E94381360E088E990E00E94381387
:103ED00081E990E00E943A1380932803882379F0C7
:103EE00082E990E00E943A1390E090935903809306
:103EF000580381E080935C0380932B0302C01092EF
:103F00005C0383E990E00E943A1390E090935E0393
:103F100080935D0385E990E00E943A1391E081115E
:103F200001C090E09093610386E990E00E943A130B
:103F300091E0811101C090E09093600384E990E0EA
:103F40000E943A1391E0811101C090E090936203C6
:103F500087E990E00E943A1390E090932A038093BF
:103F6000290388E990E00E943A1391E0811101C091
:103F700090E090935F0340E5242E312C8E010F5F7B
:103F80001F4F1E830D830E94720F9B01AB01BC016A
:103F90008091DF03882389F08091D703122F181BAB
:103FA0001093E0038091D4039091D50301969093F0
:103FB000D5038093D4031092DF038091DB039091AB
:103FC000DC03A091DD03B091DE03481759076A07AF
:103FD0007B078CF4821B823010F40C94132F83B770
:103FE000817F83BF83B7816083BF889583B78E7FCE
:103FF00083BF0C94132F8091D6038A019B01080F75
:10400000111D211D311D0093DB031093DC03209350
:10401000DD033093DE034093D7035093D8036093BE
:10402000D9037093DA0381E08093DF0380918503E5
:10403000809386030E94C80F809385030E9408190D
:1040400080913B0390913C03009709F0DFC0809082
:10405000390390903A03A0903703B090380313E1EE
:104060001A19E12C0AE124E44FE650E1612F8EE1B8
:104070000E94ED17082D053408F004E484E4801B49
:10408000E12E110FFF0810E0409087035090880345
:10409000025E1F4F9801280F311D38872F8337018B
:1040A0003AE1630E711C8F81988508171907ECF4AB
:1040B0006701F7FE0FC0C12CD12C0CC0C816D90661
:1040C0008CF420E0A601B801C2010E9409125FEF42
:1040D000C51AD50AC30161E4661671047CF380E455
:1040E00090E0ECCF0F5F1F4FDECF809135039091B2
:1040F0003603B1010E949330E62FEA198091330311
:1041000090913403B1010E949330862FC12C38E086
:10411000E32E08E02FE530E147E650E16E2F0E94E4
:10412000B2168091310390913203009781F495E4A7
:10413000891691044CF4AFEF8A1A9A0A90923A03C6
:10414000809239030C940B2F81E090E04DC08130B8
:10415000910509F04FC060912F0370913003409199
:10416000330350913403460F571F80912D039091D4
:104170002E0302962091350330913603280F391F04
:10418000203EBBE03B0724F080EA9FEF20E93BE0C4
:10419000460F571F0296280F391F203EEBE03E07BF
:1041A00024F080EA9FEF20E93BE030933603209330
:1041B000350390932E0380932D0350933403409343
:1041C000330340315D4114F40C940B2F80EC9CE1DF
:1041D000909334038093330380ED92E09093360301
:1041E0008093350382E090E0909332038093310313
:1041F0000C940B2F029711F00C940B2F8091D40389
:1042000080FD02C00C941D2F0C940B2F8130910562
:1042100009F041C2E12C0AE124E44FE650E16AE0F2
:104220008EE10E94ED17A0906403B0906503A11485
:10423000B10431F0CC24C39402E0A016B10409F417
:10424000C12C12E0A116B10418F047E550E102C0FC
:1042500047E650E128E0E22E08E02FE530E160E09B
:104260008CE50E94B2168091D4039091D50363E04F
:1042700070E00E947F30892B51F4C501019664E003
:1042800070E00E94933090936503809364032091C3
:104290002C03211108C080912B03882309F456C0F8
:1042A00004E410E17CC0213009F453C0223009F04D
:1042B00048C080916303823039F480916203811198
:1042C0004BC001E310E16BC0853051F480912903AC
:1042D00090912A03019709F442C003E210E15FC004
:1042E000833039F48091610381113CC00BE010E10F
:1042F00056C0843039F480916003811136C002EFDA
:104300001FE04DC0863039F480915F03811130C0C9
:1043100009ED1FE044C0813071F580915D039091FB
:104320005E03009759F18130910559F18230910572
:1043300059F18330910559F1049761F106EB1FE0C3
:104340002EC0233051F10CE51FE029C002E510E139
:1043500026C003E51FE023C00BE310E120C00AE202
:1043600010E11DC003E110E11AC00FEF1FE017C0FC
:1043700006EE1FE014C009E61FE011C002E71FE0CF
:104380000EC004E81FE00BC004E91FE008C006EA05
:104390001FE005C007EC1FE002C004E61FE0C801F3
:1043A000298B0E946A316C012989211106C08091F4
:1043B0002B03813011F40C94312F90E0C90ED11CE5
:1043C00026E02C9DC0012D9D900D11242FE730E09B
:1043D0005901A81AB90AB694A7944CE26A2DC801EB
:1043E0000E94061880912C03811110C080912B032C
:1043F000813061F46091280370E06F5F7F4F072E7A
:10440000000C880B990B4AE00E94391820E1C21673
:10441000D10410F014E001C01AE088EF8A0DEE24F8
:10442000E39409E028E043E45FE06BE2811B0E9433
:10443000ED178C2D880FC80ECC0CCA948C2D8A0DCC
:10444000E12C28E043E45FE06BE2810F0E94ED176E
:1044500080912C03823041F408E029E04AE35FE0D8
:1044600068E38BE30E94ED1748E368E685E39FE08D
:104470000E94061880E40E94FB17882391F0109296
:10448000630380912B03811107C080912C0381115C
:1044900003C081E080932C0380912C0390E001966F
:1044A00016C080E20E94FB178823C9F080912B037D
:1044B000811107C080912C03823019F481E0809330
:1044C0002C031092630380912C0390E0049665E026
:1044D00070E00E94933080932C030C940B2F80E1AA
:1044E0000E94FB17882359F080912C03823011F031
:1044F0000C940B2F8091630390E001960FC080E82D
:104500000E94FB17882391F080912C03823011F0D8
:104510000C940B2F8091630390E0069667E070E0A7
:104520000E949330809363030C940B2F84E00E94CD
:10453000FB17882311F40C940B2F80912C038230ED
:1045400009F443C078F4882329F1813011F00C94E8
:104550000B2F1092280385E090E0909359038093ED
:1045600058032CC0833009F48EC0843011F00C94B1
:104570000B2F81E090E090935B0380935A030E949D
:104580008A1888E18093D30389E28093D60383E07D
:1045900090E07BC080912B0381110AC01092280308
:1045A00085E090E090935903809358030E940F1484
:1045B00080915C03882321F010925C030E940F1409
:1045C0000E94F42F82E090E060C08091630383300A
:1045D00089F178F48130E9F0823011F00C940B2FDE
:1045E0006091620381E068276093620384E990E050
:1045F00046C08530B1F138F1863011F00C940B2FA4
:1046000060915F0381E0682760935F0388E990E031
:1046100036C080915D0390915E03019666E070E084
:104620000E947F3080935D0390935E03682F83E93F
:1046300090E025C06091610381E068276093610389
:1046400085E990E01CC06091600381E06827609379
:10465000600386E990E00E94381360E081E990E011
:104660000EC06091290370912A03617077276F5FF4
:104670007F4F70932A036093290387E990E00E949B
:1046800038130C940B2F84E090E090933C038093BC
:104690003B030C940B2F8430910509F0D7C0809117
:1046A0005703811104C06EE28EE29FE003C061E314
:1046B00088E29FE044E00E94061880915703811130
:1046C00035C0EE24E39409E028E043E45FE064E1D0
:1046D0008CE00E94ED17E12C28E043E45FE064E108
:1046E00088E10E94ED17EE24E39408E022E146E120
:1046F0005FE064E28CE00E94ED17E12C22E146E1EC
:104700005FE064E38CE00E94ED1745E168E28AE037
:104710009FE00E94061845E268E281E09FE00E9467
:10472000061845E368E28BEF9EE078C0E12C0DE0CF
:104730002DE0813009F04EC041EE5EE062E182E0A2
:104740000E94ED172DE047EC5EE062E18FE30E94EE
:10475000ED172DE04DEA5EE062E282E00E94ED1787
:104760002DE043E95EE062E28FE30E94ED172DE069
:1047700049E75EE062E382E00E94ED17EE24E394F5
:104780002DE049E75EE062E38FE30E94ED1745E12B
:1047900064E184E79EE00E94061845E161E58EE64B
:1047A0009EE00E94061845E264E187E69EE00E94D2
:1047B000061845E261E580E69EE00E94061845E3A2
:1047C00064E18BE59EE00E94061845E361E586E51D
:1047D0009EE024C04CE35EE062E182E00E94ED17BF
:1047E0002DE042E25EE062E18FE30E94ED172DE0F2
:1047F00048E05EE062E282E00E94ED1745E164E19C
:1048000081E09EE00E94061845E161E588EF9DE0A9
:104810000E94061845E264E181EF9DE00E940618BF
:104820008FEF0E94FB17882311F40C940B2F8091BB
:1048300057038F5F80935703833010F40C940B2F32
:104840000E947313109257030C940B2F039709F0D7
:104850004DC0C12C0AE1E02E04E42FE630E1A901AD
:1048600063E18EE10E94B21688E0E82E08E02FE5B1
:1048700030E147E650E169E08CE50E94B21644E37E
:1048800063E286EE9DE00E94061843E268E685E357
:104890009FE00E9406188091D4039091D5036CE0AC
:1048A00070E00E947F30892B49F480915A039091E7
:1048B0005B038038910510F40C94452F20915A0326
:1048C00030915B032130310511F0C90102C082E053
:1048D00090E00E94D5188FEF0E94FB17882311F4F7
:1048E0000C940B2F0E9473130C940B2F88E00E94E2
:1048F000FB17882349F080912703882319F086EA63
:104900000E941E100E94731381E0809356038091D1
:10491000250390912603029709F0CBC1E09029036B
:10492000F0902A03970180915D0390915E0381309E
:10493000910519F5809118038823E9F065E070E08E
:104940008091D4039091D5030E947F30892B19F573
:104950000E94C80F85FFF0C080911103909112034F
:104960002091C1013091C201821B930B90931203DD
:1049700080931103E1C064E0E2CF009711F40C943E
:104980004D2F8530910511F00C94552F9701220F72
:10499000331F2E0D3F1D80911703823019F4220F13
:1049A000331F11C0813079F437FF02C02F5F3F4FB2
:1049B000359527952115310531F48091D40380FF79
:1049C000C7CF21E030E04091180318861F820F8185
:1049D0001885021713070CF0BBCFECEEF2E0FC8752
:1049E000EB8756ECC52E51E0D52E6AEAA62E62E082
:1049F000B62E7AE6672E72E0772EE6E04E2EE2E0E3
:104A00005E2EEB85FC850191FC87EB87002309F482
:104A10007BC0D201ED91FC91D3018D919C911197B6
:104A20008E0F9F1F11969C938E9397FF03C01D922C
:104A30001C921BC0A02FB0E0A35CBE4F8C90912CA9
:104A4000B1010E949330680D791D613871059CF0A9
:104A500060E870E068197909B0E5B69FC001B79FBA
:104A6000900D1124D3018D939C93F195E195F1095B
:104A7000D201ED93FC93D601ED91FC91411103C05D
:104A800082E090E002C080E090E0E80FF91FD601DC
:104A9000ED93FC93D5018D919C9111978E0F9F1FE3
:104AA00011969C938E9397FF07C01D921C92411103
:104AB00025C0E0E0F0E025C010E0D801A35CBE4FC7
:104AC0008C90912CB1010E949330680D791D613456
:104AD0007105D4F060E470E068197909B0E5B69F1B
:104AE000C001B79F900D1124D5018D939C93411166
:104AF00005C0F801E35EFE4FE081F0E0F195E1953D
:104B0000F109D601ED93FC93B2E0CB0ED11CE2E0AB
:104B1000AE0EB11CF2E06F0E711C02E0400E511C93
:104B200016E0C11612E0D10609F06BCFEF81F885CF
:104B30003196F887EF834BCF0E94C80F86FF0EC0D7
:104B400020911103309112038091C1019091C20113
:104B5000820F931F9093120380931103809111038E
:104B60009091120397FF05C0109212031092110347
:104B700009C08039944234F080E494E290931203A7
:104B80008093110310923F030CE013E090E4C92ED0
:104B900093E0D92E24E4822E23E0922E30E6A32E39
:104BA0003EE0B32E77247394D8018C91882369F06A
:104BB0002091C301F40180819181821B910991832D
:104BC000808397FF0DC01C920BC084E80E94FB17E6
:104BD000882331F080913F03882311F40C94672FD0
:104BE00080911503882361F00F5F1F4FF2E0CF0E15
:104BF000D11C22E0820E911C33E00E301307A1F687
:104C000080910E03882381F120914A0330914B0358
:104C10008091C4019091C501820F931F813A5FE09A
:104C2000950714F080EA9FE090934B0380934A032A
:104C300028EE33E0E29EC001E39E900DF29E900DBF
:104C400011246CE370E00E947F3080914D039091BD
:104C50004E03680F791F70934E0360934D03603AC3
:104C60007F4010F010920E0380911603811121C035
:104C700020910F033091100312161306D4F448EE5E
:104C800053E0E49EC001E59E900DF49E900D11242A
:104C90006CE370E00E947F30261B370B37FD05C0A8
:104CA0003093100320930F0304C01092100310924E
:104CB0000F0380910E03882309F487C080911103AC
:104CC000909112032091480330914903A901405F5C
:104CD0005B4F481759070CF478C080549C4F8217DB
:104CE00093070CF472C080911303909114032091E8
:104CF0004A0330914B03A901405F5B4F48175907A6
:104D00000CF463C080569A4F821793070CF45DC071
:104D100080914C03803651F480915803909159034F
:104D2000019690935903809358034AC0843021F42C
:104D300081E08093150344C0803241F481E0809388
:104D400016031092100310920F033AC0803139F409
:104D50009091230381E089278093230331C0883019
:104D600071F49091270381E08927809327038111B3
:104D700002C086EA01C087EA0E941E1021C0803C62
:104D8000B1F480911603811106C080910F039091B8
:104D90001003892B49F01092160380ED97E0909351
:104DA000100380930F030CC01092560309C0803487
:104DB00011F481E003C0803819F482E08093170376
:104DC00080915603811110920E03ACE0B3E0B887D6
:104DD000AF8310E4612E13E0712E04E4402E03E053
:104DE000502E4D0183E0A82EB12CF4018081882340
:104DF00009F463C16CEE72E00AE612E01A870987D3
:104E0000EAEAF2E0AB0100E010E0DA018D91AD01D9
:104E1000882309F445C1D3012D913C91A985BA8518
:104E2000ED90FC9090E0835C9E4FDC018C91B0E5AE
:104E30008B9FC00111246701C80ED91EC216D3066C
:104E40000CF42EC120573E4F2E153F050CF428C1FF
:104E5000D2012D913C91E080F1808E0D9F1D821733
:104E600093070CF41DC13C5E2E153F050CF418C1D0
:104E700080916203882301F1B1E0B0931D0380911A
:104E80008100887F816080938100E1E9F2EBF093FB
:104E90008900E093880083E290E0A0E0B0E0809396
:104EA000190390931A03A0931B03B0931C038091E2
:104EB0006F00826080936F00D4011C92E12CF12C72
:104EC000FB018191BF01882349F0FFEFEF1AFF0A30
:104ED00020E2E216F104A1F7E12CF12C80910E03FF
:104EE000811163C0B801695B7D4F6B01DB018C915F
:104EF00081112DC080914602882349F10E94FE3025
:104F00006CE070E00E947F30892B91F40E94FE30AB
:104F100066E070E00E949330882361F0813061F098
:104F2000823061F0833061F0843061F0853061F06F
:104F300080E00BC080E609C084E007C088E005C0BF
:104F400080E103C080E401C080E2F6018083D601E5
:104F50008C91882351F180934C03F30180819181DE
:104F6000805491409093490380934803F801EE0FD9
:104F7000FF1FE655FD4F80819181813FFFE09F0734
:104F80002CF490934B0380934A0306C020EF3FE03C
:104F900030934B0320934A0331E030930E03109279
:104FA0004E0310924D03D6011C92F801E451FD4FBF
:104FB000408141504083442309F47FC0242F30E0D6
:104FC000F901EF5DFE4F808190E0000F111FF801A5
:104FD000EA5FFD4F9183808350911803552329F098
:104FE00022273327281B390B09C0F901E35EFE4F46
:104FF0002081269530E0319521953109F801EA5359
:10500000FE4F318320835523C1F0B8016A5F7D4F85
:105010006B01880F991F880F991FB5010E9493306B
:10502000D6016D937C93C901880F991F880F991F32
:10503000B5010E94933071836083F701E451FD4F05
:105040004083F801E659FD4F20813181C701880F67
:10505000991FFC01E659FD4F31832083F801E65585
:10506000FD4F20813181FC01E655FD4F31832083C6
:10507000FC01EA5FFD4FD801AA5FBD4F2D913C9125
:1050800031952195310931832083F801EA53FE4F90
:1050900020813181FC01EA53FE4F318320830DC012
:1050A0000F5F1F4F29853A852E5F3F4F3A8729872B
:1050B00032960032110509F0A8CE3FEF831A930A09
:1050C00052E0650E711C62E0460E511C7EE08716B0
:1050D00073E0970609F089CEB0905603BB2009F41F
:1050E0005FC080910F0390911003892B09F055C088
:1050F00040911103509112038A0100561F4F405EE8
:105100005C4F60911303709114037B0180EAE80EF9
:10511000F11C7B5F2CEE822E22E0922E20E030E00C
:10512000D4018D914D01882399F1D901A659BD4F24
:105130000D90BC91A02D90E0835C9E4FFC0180817E
:10514000F0E58F9FC00111246D01C80ED91EC01655
:10515000D106F4F04A175B07DCF0D901A655BD4F24
:105160000D90BC91A02D8A0F9B1F8E159F0584F07A
:105170006A177B076CF080911603882379F01092F0
:10518000160380ED97E09093100380930F0305C002
:105190002E5F3F4F2034310519F6B12C81E0B8263F
:1051A000B0925603F090680210916702112329F023
:1051B000103131F04EEC55E005C04EE453E002C032
:1051C0004EE458E0EF2C04E220E86CE080E00E941E
:1051D000ED17103241F40AE020E84EE452E060E3BB
:1051E00080E00E94ED17812C912C93E0A92EB12C28
:1051F0008CEE482E82E0582E612C712C9501235C98
:105200003E4F3C872B87B4016B5C7E4F7E876D875A
:10521000C4018B5D9E4F9A878987D401A35DBE4FE1
:10522000B88BAF87D2018D912D0190E08A159B0537
:10523000B9F58091EA029091EB02009729F0CC2415
:10524000C3948230910509F4C12CEB85FC85008163
:10525000AD85BE8516962D913C911797029718F44F
:10526000AF85B88902C0A985BA851696ED91FC91E3
:105270001797D301A655BD4F8D919C91B1010E9406
:105280009330162FD301A659BD4F8D919C91B1013A
:105290000E949330862FE02EAF01612F0E94B2163C
:1052A000B2E06B0E711CE0E46E16710409F0BACF27
:1052B000F1E0AF1AB10802E0801A9108A114B1041C
:1052C00009F096CF809169028823B9F08091250377
:1052D00090912603029789F46091290370912A0323
:1052E00086E090E00E947F308091D4039091D503B6
:1052F0000E947F30892B09F406C6EF81F8858191E1
:10530000F887EF838823D1F0F501EC5BFC4F8081B7
:105310009181B1010E949330362FF501E05CFC4F82
:1053200080819181B1010E949330862FE12C00E4AD
:1053300025E04EEC5AE0632F0E94ED17F2E0AF0E2D
:10534000B11C04E0A016B104C1F680910E038823BD
:1053500009F450C080914D0390914E03843C19E0B4
:10536000910730F068EC70E00E947F3060FD42C031
:1053700080914C03C0902303803819F481E0C82643
:105380000CC0803669F0843071F0883079F080315B
:1053900081F0803C89F0803291F0E9E7FEE011C0B5
:1053A000E1EEFEE00EC0EDEAFEE00BC0E2E2FEE060
:1053B00008C0ECE3FEE005C0E7ECFEE002C0E3E974
:1053C000FEE080914A0390914B03B1010E9493301B
:1053D000162F8091480390914903B1010E949330A8
:1053E000862F0DE0E02E0DE025E63CE0AF01612FB9
:1053F0000E94B2160E9402148823E1F080911303E8
:1054000090911403B1010E949330E62F8091110313
:1054100090911203B1010E949330862FC12CB2E10A
:10542000EB2E0CE026E13CE04AE35CE06E2F0E94AC
:10543000B2169CC180910F039091100318161906A3
:1054400034F468EC70E00E947F3060FF8FC10091FF
:105450002503109126030230110509F062C50E9450
:10546000C80F86FF95C5E0901103F0901203C701A5
:1054700060E273E00E949330CB01B8010E94933048
:1054800024E2289FF001299FF00D11249F0122534F
:10549000344FEA57F44F8091130390911403B101F4
:1054A0000E949330162FC701B1010E949330862FBE
:1054B000C12CA2E1EA2E0CE0AF01612F0E94B216CE
:1054C00080911603882309F451C12091250330915E
:1054D00026038091110390911203B1010E94933031
:1054E0002230310509F08FC06A5FE62EF12C21E0F1
:1054F0004AE250E0B70180918703909188030E94AF
:105500000912D12C88248394912C0DE0E6EE6E2EA6
:1055100077247A94F4EFAF2EBB24BA943D813C5F9C
:105520003F83D39462E0860E911CA80CB91CC12C59
:105530005D2C5194402E41949E012F5F3F4F298B4B
:105540003A8B0E9470158170815029893A89D9015E
:105550008D939D011F811A13F2CF1D2D402F21E045
:105560002C1518F4852D342D02C0302F8D2DC0FC44
:1055700002C0152D442D042E000C550B495C5F4FC5
:105580009A81490F511D97FD5A95B701680F711DFA
:1055900087FD7A958981680F711D87FD7A9521E0D5
:1055A00080918703909188033A8B0E940912412FC2
:1055B000110F550B495C5F4F8C81480F511D87FDC2
:1055C0005A953A89B701630F711D37FD7A958B8122
:1055D000680F711D87FD7A9521E080918703909176
:1055E00088030E940912C39434E0C312A5CFD016D9
:1055F00008F0BCC0B7FC95CF015052E0650E711C9D
:10560000A60CB71C8ECF6B018B010A5F1F4F18874A
:105610000F8321E044E450E0B8018DEC93E00E9458
:10562000091221E04AE250E06F8178858DEC93E029
:105630000E940912B6016D5E7F4F21E047E350E002
:105640008DEC93E00E940912B6016750710921E0C8
:1056500047E350E08DEC93E00E94091201E010E076
:105660001C870B87E12CF12C0DE010E026EE3FEFBC
:105670003E872D8764EF462E55245A947FEFE71A14
:10568000F70A8B859C8502969C878B87480E591E4E
:10569000370196E0690E711C6C0C7D1C21E04801FD
:1056A000A7E38A0E911CA401B3018DEC93E00E9444
:1056B00009125601AE18BF08B6E0AB0EB11C21E0CE
:1056C000A401B5018DEC93E00E94091221E047E3AB
:1056D000842E912C801A910AA401B3018DEC93E0E1
:1056E0000E94091221E0A401B5018DEC93E00E9413
:1056F00009125701E7E3AE0EB11C21E0A5018F802E
:105700009884800E911EB4018DEC93E00E940912E2
:1057100021E0A501AF80B884A01AB10AB5018DECD3
:1057200093E00E94091257E3652E712C6E187F08D2
:1057300021E0A301B4018DEC93E00E94091221E065
:10574000A301B5018DEC93E00E940912E016F10669
:105750006CF457FC93CF015011096D857E856E5F07
:105760007F4F7E876D87460E571E88CF809124031A
:10577000882351F08091250390912603029721F40C
:105780008AE090E00E94D51800E010E021E040E0BF
:1057900050E0B8018DEC93E00E9409120F5F1F4F9B
:1057A0000038110599F700E010E021E04FE350E0E8
:1057B000B8018DEC93E00E9409120F5F1F4F003873
:1057C000110599F700E010E021E0A80160E070E029
:1057D0008DEC93E00E9409120F5F1F4F00341105FA
:1057E00099F700E010E021E0A8016FE770E08DEC90
:1057F00093E00E9409120F5F1F4F0034110599F7C3
:1058000080912303811108C0809125039091260384
:10581000892B09F065C02DC080E090E01FE7FC01F6
:10582000EE0FFF1FE078282F2F73012F021BAF010F
:10583000400F511D6091890370918A039C012F7361
:105840003327E20FF31FE60FF71F2081640F751F48
:10585000DB013C9130836091890370918A03FB01E5
:10586000E40FF51F208301968115B2E09B07B9F67E
:10587000CBCF109128031F5F143630F41A3040F458
:10588000EE24E394F12C07C093E0E92EF12C03C041
:1058900082E0E82EF12C86E40E94821397012A5FB1
:1058A0003F4F4AEF4203B001439F700D11246158EE
:1058B0007F4F759567956F5F4CE18EE59CE00E9488
:1058C0000618612F70E080E090E04AE00E943918ED
:1058D00010921F03109220031092210310922203B2
:1058E0001092530380911803882379F0C12C1DE096
:1058F000E12E0DE025E63CE048E05EE063E083E079
:105900000E94B21681E08093530380912303882381
:10591000A9F0109153038FE0189F802D1124C12C02
:10592000BDE0EB2E0DE025E63CE04CE35EE063E0FD
:105930008D5F0E94B2161F5F10935303809127035F
:105940008823A9F0109153038FE0189F802D112414
:10595000C12CADE0EA2E0DE025E63CE042E25EE03F
:1059600063E08D5F0E94B2161F5F10935303809116
:1059700017038823C9F010915303CC24C3948130BA
:1059800009F4C12C8FE0189F802D1124FDE0EF2E2B
:105990000DE025E63CE049E75EE063E08D5F0E94B4
:1059A000B2161F5F10935303809116038823A9F04A
:1059B000109153038FE0189F802D1124C12CEDE02E
:1059C000EE2E0DE025E63CE043E95EE063E08D5F0E
:1059D0000E94B2161F5F1093530380911503882312
:1059E000A9F0109153038FE0189F802D1124C12C32
:1059F0007DE0E72E0DE025E63CE04DEA5EE063E069
:105A00008D5F0E94B2161F5F1093530380915F0356
:105A1000882309F44BC080912503909126030297B7
:105A2000B9F580915403909155039C012F5F3F4F2E
:105A300030935503209354036EE170E00E947F3051
:105A4000892B31F50E94720F6B017C0180911F033D
:105A500090912003A0912103B09122030097A1050A
:105A6000B10571F0A7019601281B390B4A0B5B0B9E
:105A700060E375E780E090E00E94BB3120931E0355
:105A8000C0921F03D0922003E0922103F0922203E0
:105A900043E066E081EE9DE00E94061860911E03DF
:105AA00070E080E090E04AE00E943918809156034F
:105AB000811134C00E940214811130C080916203B0
:105AC000882301F181E080931D0380918100887F0C
:105AD00081608093810089EA99E2909389008093A4
